{
  "abi": [
    {
      "inputs": [],
      "stateMutability": "nonpayable",
      "type": "constructor"
    },
    {
      "anonymous": false,
      "inputs": [
        {
          "indexed": true,
          "internalType": "address",
          "name": "owner",
          "type": "address"
        }
      ],
      "name": "AddedOwner",
      "type": "event"
    },
    {
      "anonymous": false,
      "inputs": [
        {
          "indexed": true,
          "internalType": "bytes32",
          "name": "approvedHash",
          "type": "bytes32"
        },
        {
          "indexed": true,
          "internalType": "address",
          "name": "owner",
          "type": "address"
        }
      ],
      "name": "ApproveHash",
      "type": "event"
    },
    {
      "anonymous": false,
      "inputs": [
        {
          "indexed": true,
          "internalType": "address",
          "name": "handler",
          "type": "address"
        }
      ],
      "name": "ChangedFallbackHandler",
      "type": "event"
    },
    {
      "anonymous": false,
      "inputs": [
        {
          "indexed": true,
          "internalType": "address",
          "name": "guard",
          "type": "address"
        }
      ],
      "name": "ChangedGuard",
      "type": "event"
    },
    {
      "anonymous": false,
      "inputs": [
        {
          "indexed": false,
          "internalType": "uint256",
          "name": "threshold",
          "type": "uint256"
        }
      ],
      "name": "ChangedThreshold",
      "type": "event"
    },
    {
      "anonymous": false,
      "inputs": [
        {
          "indexed": true,
          "internalType": "address",
          "name": "module",
          "type": "address"
        }
      ],
      "name": "DisabledModule",
      "type": "event"
    },
    {
      "anonymous": false,
      "inputs": [
        {
          "indexed": true,
          "internalType": "address",
          "name": "module",
          "type": "address"
        }
      ],
      "name": "EnabledModule",
      "type": "event"
    },
    {
      "anonymous": false,
      "inputs": [
        {
          "indexed": true,
          "internalType": "bytes32",
          "name": "txHash",
          "type": "bytes32"
        },
        {
          "indexed": false,
          "internalType": "uint256",
          "name": "payment",
          "type": "uint256"
        }
      ],
      "name": "ExecutionFailure",
      "type": "event"
    },
    {
      "anonymous": false,
      "inputs": [
        {
          "indexed": true,
          "internalType": "address",
          "name": "module",
          "type": "address"
        }
      ],
      "name": "ExecutionFromModuleFailure",
      "type": "event"
    },
    {
      "anonymous": false,
      "inputs": [
        {
          "indexed": true,
          "internalType": "address",
          "name": "module",
          "type": "address"
        }
      ],
      "name": "ExecutionFromModuleSuccess",
      "type": "event"
    },
    {
      "anonymous": false,
      "inputs": [
        {
          "indexed": true,
          "internalType": "bytes32",
          "name": "txHash",
          "type": "bytes32"
        },
        {
          "indexed": false,
          "internalType": "uint256",
          "name": "payment",
          "type": "uint256"
        }
      ],
      "name": "ExecutionSuccess",
      "type": "event"
    },
    {
      "anonymous": false,
      "inputs": [
        {
          "indexed": true,
          "internalType": "address",
          "name": "owner",
          "type": "address"
        }
      ],
      "name": "RemovedOwner",
      "type": "event"
    },
    {
      "anonymous": false,
      "inputs": [
        {
          "indexed": true,
          "internalType": "address",
          "name": "sender",
          "type": "address"
        },
        {
          "indexed": false,
          "internalType": "uint256",
          "name": "value",
          "type": "uint256"
        }
      ],
      "name": "SafeReceived",
      "type": "event"
    },
    {
      "anonymous": false,
      "inputs": [
        {
          "indexed": true,
          "internalType": "address",
          "name": "initiator",
          "type": "address"
        },
        {
          "indexed": false,
          "internalType": "address[]",
          "name": "owners",
          "type": "address[]"
        },
        {
          "indexed": false,
          "internalType": "uint256",
          "name": "threshold",
          "type": "uint256"
        },
        {
          "indexed": false,
          "internalType": "address",
          "name": "initializer",
          "type": "address"
        },
        {
          "indexed": false,
          "internalType": "address",
          "name": "fallbackHandler",
          "type": "address"
        }
      ],
      "name": "SafeSetup",
      "type": "event"
    },
    {
      "anonymous": false,
      "inputs": [
        {
          "indexed": true,
          "internalType": "bytes32",
          "name": "msgHash",
          "type": "bytes32"
        }
      ],
      "name": "SignMsg",
      "type": "event"
    },
    {
      "stateMutability": "nonpayable",
      "type": "fallback"
    },
    {
      "inputs": [],
      "name": "VERSION",
      "outputs": [
        {
          "internalType": "string",
          "name": "",
          "type": "string"
        }
      ],
      "stateMutability": "view",
      "type": "function"
    },
    {
      "inputs": [
        {
          "internalType": "address",
          "name": "owner",
          "type": "address"
        },
        {
          "internalType": "uint256",
          "name": "_threshold",
          "type": "uint256"
        }
      ],
      "name": "addOwnerWithThreshold",
      "outputs": [],
      "stateMutability": "nonpayable",
      "type": "function"
    },
    {
      "inputs": [
        {
          "internalType": "bytes32",
          "name": "hashToApprove",
          "type": "bytes32"
        }
      ],
      "name": "approveHash",
      "outputs": [],
      "stateMutability": "nonpayable",
      "type": "function"
    },
    {
      "inputs": [
        {
          "internalType": "address",
          "name": "",
          "type": "address"
        },
        {
          "internalType": "bytes32",
          "name": "",
          "type": "bytes32"
        }
      ],
      "name": "approvedHashes",
      "outputs": [
        {
          "internalType": "uint256",
          "name": "",
          "type": "uint256"
        }
      ],
      "stateMutability": "view",
      "type": "function"
    },
    {
      "inputs": [
        {
          "internalType": "uint256",
          "name": "_threshold",
          "type": "uint256"
        }
      ],
      "name": "changeThreshold",
      "outputs": [],
      "stateMutability": "nonpayable",
      "type": "function"
    },
    {
      "inputs": [
        {
          "internalType": "address",
          "name": "executor",
          "type": "address"
        },
        {
          "internalType": "bytes32",
          "name": "dataHash",
          "type": "bytes32"
        },
        {
          "internalType": "bytes",
          "name": "",
          "type": "bytes"
        },
        {
          "internalType": "bytes",
          "name": "signatures",
          "type": "bytes"
        },
        {
          "internalType": "uint256",
          "name": "requiredSignatures",
          "type": "uint256"
        }
      ],
      "name": "checkNSignatures",
      "outputs": [],
      "stateMutability": "view",
      "type": "function"
    },
    {
      "inputs": [
        {
          "internalType": "bytes32",
          "name": "dataHash",
          "type": "bytes32"
        },
        {
          "internalType": "bytes",
          "name": "data",
          "type": "bytes"
        },
        {
          "internalType": "bytes",
          "name": "signatures",
          "type": "bytes"
        }
      ],
      "name": "checkSignatures",
      "outputs": [],
      "stateMutability": "view",
      "type": "function"
    },
    {
      "inputs": [
        {
          "internalType": "address",
          "name": "prevModule",
          "type": "address"
        },
        {
          "internalType": "address",
          "name": "module",
          "type": "address"
        }
      ],
      "name": "disableModule",
      "outputs": [],
      "stateMutability": "nonpayable",
      "type": "function"
    },
    {
      "inputs": [],
      "name": "domainSeparator",
      "outputs": [
        {
          "internalType": "bytes32",
          "name": "",
          "type": "bytes32"
        }
      ],
      "stateMutability": "view",
      "type": "function"
    },
    {
      "inputs": [
        {
          "internalType": "address",
          "name": "module",
          "type": "address"
        }
      ],
      "name": "enableModule",
      "outputs": [],
      "stateMutability": "nonpayable",
      "type": "function"
    },
    {
      "inputs": [
        {
          "internalType": "address",
          "name": "to",
          "type": "address"
        },
        {
          "internalType": "uint256",
          "name": "value",
          "type": "uint256"
        },
        {
          "internalType": "bytes",
          "name": "data",
          "type": "bytes"
        },
        {
          "internalType": "enum Enum.Operation",
          "name": "operation",
          "type": "uint8"
        },
        {
          "internalType": "uint256",
          "name": "safeTxGas",
          "type": "uint256"
        },
        {
          "internalType": "uint256",
          "name": "baseGas",
          "type": "uint256"
        },
        {
          "internalType": "uint256",
          "name": "gasPrice",
          "type": "uint256"
        },
        {
          "internalType": "address",
          "name": "gasToken",
          "type": "address"
        },
        {
          "internalType": "address payable",
          "name": "refundReceiver",
          "type": "address"
        },
        {
          "internalType": "bytes",
          "name": "signatures",
          "type": "bytes"
        }
      ],
      "name": "execTransaction",
      "outputs": [
        {
          "internalType": "bool",
          "name": "success",
          "type": "bool"
        }
      ],
      "stateMutability": "payable",
      "type": "function"
    },
    {
      "inputs": [
        {
          "internalType": "address",
          "name": "to",
          "type": "address"
        },
        {
          "internalType": "uint256",
          "name": "value",
          "type": "uint256"
        },
        {
          "internalType": "bytes",
          "name": "data",
          "type": "bytes"
        },
        {
          "internalType": "enum Enum.Operation",
          "name": "operation",
          "type": "uint8"
        }
      ],
      "name": "execTransactionFromModule",
      "outputs": [
        {
          "internalType": "bool",
          "name": "success",
          "type": "bool"
        }
      ],
      "stateMutability": "nonpayable",
      "type": "function"
    },
    {
      "inputs": [
        {
          "internalType": "address",
          "name": "to",
          "type": "address"
        },
        {
          "internalType": "uint256",
          "name": "value",
          "type": "uint256"
        },
        {
          "internalType": "bytes",
          "name": "data",
          "type": "bytes"
        },
        {
          "internalType": "enum Enum.Operation",
          "name": "operation",
          "type": "uint8"
        }
      ],
      "name": "execTransactionFromModuleReturnData",
      "outputs": [
        {
          "internalType": "bool",
          "name": "success",
          "type": "bool"
        },
        {
          "internalType": "bytes",
          "name": "returnData",
          "type": "bytes"
        }
      ],
      "stateMutability": "nonpayable",
      "type": "function"
    },
    {
      "inputs": [
        {
          "internalType": "address",
          "name": "start",
          "type": "address"
        },
        {
          "internalType": "uint256",
          "name": "pageSize",
          "type": "uint256"
        }
      ],
      "name": "getModulesPaginated",
      "outputs": [
        {
          "internalType": "address[]",
          "name": "array",
          "type": "address[]"
        },
        {
          "internalType": "address",
          "name": "next",
          "type": "address"
        }
      ],
      "stateMutability": "view",
      "type": "function"
    },
    {
      "inputs": [],
      "name": "getOwners",
      "outputs": [
        {
          "internalType": "address[]",
          "name": "",
          "type": "address[]"
        }
      ],
      "stateMutability": "view",
      "type": "function"
    },
    {
      "inputs": [
        {
          "internalType": "uint256",
          "name": "offset",
          "type": "uint256"
        },
        {
          "internalType": "uint256",
          "name": "length",
          "type": "uint256"
        }
      ],
      "name": "getStorageAt",
      "outputs": [
        {
          "internalType": "bytes",
          "name": "",
          "type": "bytes"
        }
      ],
      "stateMutability": "view",
      "type": "function"
    },
    {
      "inputs": [],
      "name": "getThreshold",
      "outputs": [
        {
          "internalType": "uint256",
          "name": "",
          "type": "uint256"
        }
      ],
      "stateMutability": "view",
      "type": "function"
    },
    {
      "inputs": [
        {
          "internalType": "address",
          "name": "to",
          "type": "address"
        },
        {
          "internalType": "uint256",
          "name": "value",
          "type": "uint256"
        },
        {
          "internalType": "bytes",
          "name": "data",
          "type": "bytes"
        },
        {
          "internalType": "enum Enum.Operation",
          "name": "operation",
          "type": "uint8"
        },
        {
          "internalType": "uint256",
          "name": "safeTxGas",
          "type": "uint256"
        },
        {
          "internalType": "uint256",
          "name": "baseGas",
          "type": "uint256"
        },
        {
          "internalType": "uint256",
          "name": "gasPrice",
          "type": "uint256"
        },
        {
          "internalType": "address",
          "name": "gasToken",
          "type": "address"
        },
        {
          "internalType": "address",
          "name": "refundReceiver",
          "type": "address"
        },
        {
          "internalType": "uint256",
          "name": "_nonce",
          "type": "uint256"
        }
      ],
      "name": "getTransactionHash",
      "outputs": [
        {
          "internalType": "bytes32",
          "name": "",
          "type": "bytes32"
        }
      ],
      "stateMutability": "view",
      "type": "function"
    },
    {
      "inputs": [
        {
          "internalType": "address",
          "name": "module",
          "type": "address"
        }
      ],
      "name": "isModuleEnabled",
      "outputs": [
        {
          "internalType": "bool",
          "name": "",
          "type": "bool"
        }
      ],
      "stateMutability": "view",
      "type": "function"
    },
    {
      "inputs": [
        {
          "internalType": "address",
          "name": "owner",
          "type": "address"
        }
      ],
      "name": "isOwner",
      "outputs": [
        {
          "internalType": "bool",
          "name": "",
          "type": "bool"
        }
      ],
      "stateMutability": "view",
      "type": "function"
    },
    {
      "inputs": [],
      "name": "nonce",
      "outputs": [
        {
          "internalType": "uint256",
          "name": "",
          "type": "uint256"
        }
      ],
      "stateMutability": "view",
      "type": "function"
    },
    {
      "inputs": [
        {
          "internalType": "address",
          "name": "prevOwner",
          "type": "address"
        },
        {
          "internalType": "address",
          "name": "owner",
          "type": "address"
        },
        {
          "internalType": "uint256",
          "name": "_threshold",
          "type": "uint256"
        }
      ],
      "name": "removeOwner",
      "outputs": [],
      "stateMutability": "nonpayable",
      "type": "function"
    },
    {
      "inputs": [
        {
          "internalType": "address",
          "name": "handler",
          "type": "address"
        }
      ],
      "name": "setFallbackHandler",
      "outputs": [],
      "stateMutability": "nonpayable",
      "type": "function"
    },
    {
      "inputs": [
        {
          "internalType": "address",
          "name": "guard",
          "type": "address"
        }
      ],
      "name": "setGuard",
      "outputs": [],
      "stateMutability": "nonpayable",
      "type": "function"
    },
    {
      "inputs": [
        {
          "internalType": "address[]",
          "name": "_owners",
          "type": "address[]"
        },
        {
          "internalType": "uint256",
          "name": "_threshold",
          "type": "uint256"
        },
        {
          "internalType": "address",
          "name": "to",
          "type": "address"
        },
        {
          "internalType": "bytes",
          "name": "data",
          "type": "bytes"
        },
        {
          "internalType": "address",
          "name": "fallbackHandler",
          "type": "address"
        },
        {
          "internalType": "address",
          "name": "paymentToken",
          "type": "address"
        },
        {
          "internalType": "uint256",
          "name": "payment",
          "type": "uint256"
        },
        {
          "internalType": "address payable",
          "name": "paymentReceiver",
          "type": "address"
        }
      ],
      "name": "setup",
      "outputs": [],
      "stateMutability": "nonpayable",
      "type": "function"
    },
    {
      "inputs": [
        {
          "internalType": "bytes32",
          "name": "",
          "type": "bytes32"
        }
      ],
      "name": "signedMessages",
      "outputs": [
        {
          "internalType": "uint256",
          "name": "",
          "type": "uint256"
        }
      ],
      "stateMutability": "view",
      "type": "function"
    },
    {
      "inputs": [
        {
          "internalType": "address",
          "name": "targetContract",
          "type": "address"
        },
        {
          "internalType": "bytes",
          "name": "calldataPayload",
          "type": "bytes"
        }
      ],
      "name": "simulateAndRevert",
      "outputs": [],
      "stateMutability": "nonpayable",
      "type": "function"
    },
    {
      "inputs": [
        {
          "internalType": "address",
          "name": "prevOwner",
          "type": "address"
        },
        {
          "internalType": "address",
          "name": "oldOwner",
          "type": "address"
        },
        {
          "internalType": "address",
          "name": "newOwner",
          "type": "address"
        }
      ],
      "name": "swapOwner",
      "outputs": [],
      "stateMutability": "nonpayable",
      "type": "function"
    },
    {
      "stateMutability": "payable",
      "type": "receive"
    }
  ],
  "bytecode": {
    "object": "0x608060405234801561001057600080fd5b506001600455613274806100256000396000f3fe6080604052600436106101bb5760003560e01c8063b4faba09116100ec578063e19a9dd91161008a578063f08a032311610064578063f08a0323146105d2578063f698da25146105f2578063f8dc5dd914610607578063ffa1ad7414610627576101f7565b8063e19a9dd91461057d578063e318b52b1461059d578063e75235b8146105bd576101f7565b8063cd5d1f77116100c6578063cd5d1f77146104fd578063d4d9bdcd1461051d578063d8d11f781461053d578063e009cfde1461055d576101f7565b8063b4faba091461048f578063b63e800d146104af578063cc2f8452146104cf576101f7565b8063610b5925116101595780637d832974116101335780637d832974146103ff578063934f3a1114610437578063a0e67e2b14610457578063affed0e014610479576101f7565b8063610b5925146103ac578063694e80c3146103cc5780636a761202146103ec576101f7565b8063468721a711610195578063468721a7146102f65780635229073f146103165780635624b25b146103445780635ae6bd3714610371576101f7565b80630d582f131461027f5780632d9ad53d146102a15780632f54bf6e146102d6576101f7565b366101f75760405134815233907f3d0ce9bfc3ed7d6862dbb28b2dea94561fe714a1b4d019aa8af39730d1ad7c3d9060200160405180910390a2005b34801561020357600080fd5b507f6c9a6c4a39284e37ed1cf53d337577d14212a4870fb976a4366c693b939918d580548061022e57005b60408051368101909152366000823760408051601481019091523360601b9052600080366014018382865af191505061026d3d60408051918201905290565b3d6000823e8161027b573d81fd5b3d81f35b34801561028b57600080fd5b5061029f61029a3660046126e6565b610658565b005b3480156102ad57600080fd5b506102c16102bc366004612712565b6107b0565b60405190151581526020015b60405180910390f35b3480156102e257600080fd5b506102c16102f1366004612712565b6107eb565b34801561030257600080fd5b506102c16103113660046127e1565b610823565b34801561032257600080fd5b506103366103313660046127e1565b610a27565b6040516102cd929190612891565b34801561035057600080fd5b5061036461035f3660046128ac565b610a5d565b6040516102cd91906128ce565b34801561037d57600080fd5b5061039e61038c3660046128e1565b60076020526000908152604090205481565b6040519081526020016102cd565b3480156103b857600080fd5b5061029f6103c7366004612712565b610ae3565b3480156103d857600080fd5b5061029f6103e73660046128e1565b610c1c565b6102c16103fa366004612943565b610cba565b34801561040b57600080fd5b5061039e61041a3660046126e6565b600860209081526000928352604080842090915290825290205481565b34801561044357600080fd5b5061029f610452366004612a1c565b611007565b34801561046357600080fd5b5061046c611052565b6040516102cd9190612acd565b34801561048557600080fd5b5061039e60055481565b34801561049b57600080fd5b5061029f6104aa366004612ae0565b611143565b3480156104bb57600080fd5b5061029f6104ca366004612b30565b61116a565b3480156104db57600080fd5b506104ef6104ea3660046126e6565b61126c565b6040516102cd929190612c25565b34801561050957600080fd5b5061029f610518366004612c4f565b611428565b34801561052957600080fd5b5061029f6105383660046128e1565b6118b3565b34801561054957600080fd5b5061039e610558366004612cd7565b611948565b34801561056957600080fd5b5061029f610578366004612d98565b611975565b34801561058957600080fd5b5061029f610598366004612712565b611a97565b3480156105a957600080fd5b5061029f6105b8366004612dd1565b611bad565b3480156105c957600080fd5b5060045461039e565b3480156105de57600080fd5b5061029f6105ed366004612712565b611d88565b3480156105fe57600080fd5b5061039e611dd0565b34801561061357600080fd5b5061029f610622366004612e1c565b611e2a565b34801561063357600080fd5b5061036460405180604001604052806005815260200164312e342e3160d81b81525081565b610660611f95565b6001600160a01b0382161580159061068257506001600160a01b038216600114155b801561069757506001600160a01b0382163014155b6106bc5760405162461bcd60e51b81526004016106b390612e5d565b60405180910390fd5b6001600160a01b0382811660009081526002602052604090205416156106f45760405162461bcd60e51b81526004016106b390612e7c565b60026020527fe90b7bceb6e7df5418fb78d8ee546e97c83a08bbccc01a0644d599ccd2a7c2e080546001600160a01b038481166000818152604081208054939094166001600160a01b03199384161790935560018352835490911617909155600380549161076183612eb1565b90915550506040516001600160a01b038316907f9465fa0c962cc76958e6373a993326400c1c94f8be2fe3a952adfa7f60b2ea2690600090a280600454146107ac576107ac81610c1c565b5050565b600060016001600160a01b038316148015906107e557506001600160a01b038281166000908152600160205260409020541615155b92915050565b60006001600160a01b0382166001148015906107e55750506001600160a01b0390811660009081526002602052604090205416151590565b60003360011480159061084d5750336000908152600160205260409020546001600160a01b031615155b6108815760405162461bcd60e51b815260206004820152600560248201526411d4cc4c0d60da1b60448201526064016106b3565b60006108ab7f4a204f620c8c5ccdca3fd54d003badd85ba500436a431f0cbda4f558c93c34c85490565b905060006001600160a01b038216156109385760405163394614b960e11b81526001600160a01b0383169063728c2972906108f2908a908a908a908a903390600401612f02565b6020604051808303816000875af1158015610911573d6000803e3d6000fd5b505050506040513d601f19601f820116820180604052508101906109359190612f4c565b90505b61094787878787600019611fce565b92506001600160a01b038216156109bb57604051631264e26d60e31b81526004810182905283151560248201526001600160a01b03831690639327136890604401600060405180830381600087803b1580156109a257600080fd5b505af11580156109b6573d6000803e3d6000fd5b505050505b82156109f15760405133907f6895c13664aa4f67288b25d7a21d7aaa34916e355fb9b6fae0a139a9085becb890600090a2610a1d565b60405133907facd2c8702804128fdb0db2bb49f6d127dd0181c13fd45dbfe16de0930e2bd37590600090a25b5050949350505050565b60006060610a3786868686610823565b915060405160203d0181016040523d81523d6000602083013e8091505094509492505050565b60606000610a6c836020612f65565b67ffffffffffffffff811115610a8457610a8461272f565b6040519080825280601f01601f191660200182016040528015610aae576020820181803683370190505b50905060005b83811015610adb578481015460208083028401015280610ad381612eb1565b915050610ab4565b509392505050565b610aeb611f95565b6001600160a01b03811615801590610b0d57506001600160a01b038116600114155b610b415760405162461bcd60e51b8152602060048201526005602482015264475331303160d81b60448201526064016106b3565b6001600160a01b038181166000908152600160205260409020541615610b915760405162461bcd60e51b815260206004820152600560248201526423a998981960d91b60448201526064016106b3565b600160208190527fcc69885fda6bcc1a4ace058b4a62bf5e179ea78fd58a1ccd71c22cc9b688792f80546001600160a01b03848116600081815260408082208054949095166001600160a01b031994851617909455948552835490911681179092555190917fecdf3a3effea5783a3c4c2140e677577666428d44ed9d474a0b3a4c9943f844091a250565b610c24611f95565b600354811115610c465760405162461bcd60e51b81526004016106b390612f7c565b6001811015610c7f5760405162461bcd60e51b815260206004820152600560248201526423a999181960d91b60448201526064016106b3565b60048190556040518181527f610f7ff2b304ae8903c3de74c60c6ab1f7d6226b3f52c5161905bb5ad4039c939060200160405180910390a150565b600080610ce68d8d8d8d8d8d8d8d8d8d60056000815480929190610cdd90612eb1565b91905055611948565b9050610d02816040518060200160405280600081525085611007565b6000610d2c7f4a204f620c8c5ccdca3fd54d003badd85ba500436a431f0cbda4f558c93c34c85490565b90506001600160a01b03811615610db257806001600160a01b03166375f0bb528f8f8f8f8f8f8f8f8f8f8f336040518d63ffffffff1660e01b8152600401610d7f9c9b9a99989796959493929190612f9b565b600060405180830381600087803b158015610d9957600080fd5b505af1158015610dad573d6000803e3d6000fd5b505050505b610dde610dc18a6109c4613060565b603f610dce8c6040612f65565b610dd89190613073565b90612015565b610dea906101f4613060565b5a1015610e215760405162461bcd60e51b8152602060048201526005602482015264047533031360dc1b60448201526064016106b3565b60005a9050610e928f8f8f8f8080601f016020809104026020016040519081016040528093929190818152602001838380828437600081840152601f19601f820116905080830192505050505050508e8c600014610e7f578e611fce565b6109c45a610e8d9190613095565b611fce565b9350610e9f5a829061202e565b90508380610eac57508915155b80610eb657508715155b610eea5760405162461bcd60e51b8152602060048201526005602482015264475330313360d81b60448201526064016106b3565b60008815610f0257610eff828b8b8b8b612051565b90505b8415610f4757837f442e715f626346e8c54381002da614f62bee8d27386535b2521ec8540898556e82604051610f3a91815260200190565b60405180910390a2610f82565b837f23428b18acfb3ea64b08dc0c1d296ea9c09702c09083ca5272e64d115b687d2382604051610f7991815260200190565b60405180910390a25b50506001600160a01b03811615610ff657604051631264e26d60e31b81526004810183905283151560248201526001600160a01b03821690639327136890604401600060405180830381600087803b158015610fdd57600080fd5b505af1158015610ff1573d6000803e3d6000fd5b505050505b50509b9a5050505050505050505050565b6004548061103f5760405162461bcd60e51b8152602060048201526005602482015264475330303160d81b60448201526064016106b3565b61104c3385858585611428565b50505050565b6060600060035467ffffffffffffffff8111156110715761107161272f565b60405190808252806020026020018201604052801561109a578160200160208202803683370190505b506001600090815260026020527fe90b7bceb6e7df5418fb78d8ee546e97c83a08bbccc01a0644d599ccd2a7c2e054919250906001600160a01b03165b6001600160a01b03811660011461113b57808383815181106110fb576110fb6130a8565b6001600160a01b0392831660209182029290920181019190915291811660009081526002909252604090912054168161113381612eb1565b9250506110d7565b509092915050565b600080825160208401855af46040518181523d60208201523d6000604083013e60403d0181fd5b6111a88a8a808060200260200160405190810160405280939291908181526020018383602002808284376000920191909152508c9250612189915050565b6001600160a01b038416156111c0576111c08461236f565b6112008787878080601f0160208091040260200160405190810160405280939291908181526020018383808284376000920191909152506123d392505050565b81156112175761121582600060018685612051565b505b336001600160a01b03167f141df868a6331af528e38c83b7aa03edc19be66e37ae67f9285bf4f8e3c6a1a88b8b8b8b896040516112589594939291906130be565b60405180910390a250505050505050505050565b606060006001600160a01b0384166001148061128c575061128c846107b0565b6112c05760405162461bcd60e51b8152602060048201526005602482015264475331303560d81b60448201526064016106b3565b600083116112f85760405162461bcd60e51b815260206004820152600560248201526423a998981b60d91b60448201526064016106b3565b8267ffffffffffffffff8111156113115761131161272f565b60405190808252806020026020018201604052801561133a578160200160208202803683370190505b506001600160a01b03808616600090815260016020526040812054929450911691505b6001600160a01b0382161580159061137f57506001600160a01b038216600114155b801561138a57508381105b156113e557818382815181106113a2576113a26130a8565b6001600160a01b039283166020918202929092018101919091529281166000908152600190935260409092205490911690806113dd81612eb1565b91505061135d565b6001600160a01b03821660011461141d5782611402600183613095565b81518110611412576114126130a8565b602002602001015191505b808352509250929050565b611433816041612505565b8251101561146b5760405162461bcd60e51b8152602060048201526005602482015264047533032360dc1b60448201526064016106b3565b6000808060008060005b868110156118a6576041810288016020810151604082015160609092015160001a95509350915060ff841660000361165b5791935083916114b7876041612505565b8210156114ee5760405162461bcd60e51b8152602060048201526005602482015264475330323160d81b60448201526064016106b3565b87516114fb83602061253a565b11156115315760405162461bcd60e51b815260206004820152600560248201526423a998191960d91b60448201526064016106b3565b60208289018101518951909161155490839061154e90879061253a565b9061253a565b111561158a5760405162461bcd60e51b8152602060048201526005602482015264475330323360d81b60448201526064016106b3565b60606020848b01019050631626ba7e60e01b6001600160e01b031916876001600160a01b0316631626ba7e8e846040518363ffffffff1660e01b81526004016115d492919061312a565b602060405180830381865afa1580156115f1573d6000803e3d6000fd5b505050506040513d601f19601f820116820180604052508101906116159190613143565b6001600160e01b031916146116545760405162461bcd60e51b815260206004820152600560248201526411d4cc0c8d60da1b60448201526064016106b3565b505061180c565b8360ff166001036116e7578260001c9450846001600160a01b03168b6001600160a01b031614806116ae57506001600160a01b03851660009081526008602090815260408083208d845290915290205415155b6116e25760405162461bcd60e51b8152602060048201526005602482015264475330323560d81b60448201526064016106b3565b61180c565b601e8460ff1611156117ac576040517f19457468657265756d205369676e6564204d6573736167653a0a3332000000006020820152603c81018b9052600190605c016040516020818303038152906040528051906020012060048661174c919061316d565b6040805160008152602081018083529390935260ff90911690820152606081018590526080810184905260a0016020604051602081039080840390855afa15801561179b573d6000803e3d6000fd5b50505060206040510351945061180c565b6040805160008152602081018083528c905260ff861691810191909152606081018490526080810183905260019060a0016020604051602081039080840390855afa1580156117ff573d6000803e3d6000fd5b5050506020604051035194505b856001600160a01b0316856001600160a01b031611801561184657506001600160a01b038581166000908152600260205260409020541615155b801561185c57506001600160a01b038516600114155b6118905760405162461bcd60e51b815260206004820152600560248201526423a998191b60d91b60448201526064016106b3565b849550808061189e90612eb1565b915050611475565b5050505050505050505050565b336000908152600260205260409020546001600160a01b03166119005760405162461bcd60e51b8152602060048201526005602482015264047533033360dc1b60448201526064016106b3565b336000818152600860209081526040808320858452909152808220600190555183917ff2a0eb156472d1440255b0d7c1e19cc07115d1051fe605b0dce69acfec884d9c91a350565b600061195d8c8c8c8c8c8c8c8c8c8c8c612556565b8051906020012090509b9a5050505050505050505050565b61197d611f95565b6001600160a01b0381161580159061199f57506001600160a01b038116600114155b6119d35760405162461bcd60e51b8152602060048201526005602482015264475331303160d81b60448201526064016106b3565b6001600160a01b03828116600090815260016020526040902054811690821614611a275760405162461bcd60e51b8152602060048201526005602482015264475331303360d81b60448201526064016106b3565b6001600160a01b03818116600081815260016020526040808220805487861684528284208054919096166001600160a01b0319918216179095558383528054909416909355915190917faab4fa2b463f581b2b32cb3b7e3b704b9ce37cc209b5fb4d77e593ace405427691a25050565b611a9f611f95565b6001600160a01b03811615611b51576040516301ffc9a760e01b815263128b702960e31b60048201526001600160a01b038216906301ffc9a790602401602060405180830381865afa158015611af9573d6000803e3d6000fd5b505050506040513d601f19601f82011682018060405250810190611b1d9190613186565b611b515760405162461bcd60e51b8152602060048201526005602482015264047533330360dc1b60448201526064016106b3565b7f4a204f620c8c5ccdca3fd54d003badd85ba500436a431f0cbda4f558c93c34c88181556040516001600160a01b038316907f1151116914515bc0891ff9047a6cb32cf902546f83066499bcf8ba33d2353fa290600090a25050565b611bb5611f95565b6001600160a01b03811615801590611bd757506001600160a01b038116600114155b8015611bec57506001600160a01b0381163014155b611c085760405162461bcd60e51b81526004016106b390612e5d565b6001600160a01b038181166000908152600260205260409020541615611c405760405162461bcd60e51b81526004016106b390612e7c565b6001600160a01b03821615801590611c6257506001600160a01b038216600114155b611c7e5760405162461bcd60e51b81526004016106b390612e5d565b6001600160a01b03838116600090815260026020526040902054811690831614611cd25760405162461bcd60e51b8152602060048201526005602482015264475332303560d81b60448201526064016106b3565b6001600160a01b03828116600081815260026020526040808220805486861680855283852080549288166001600160a01b03199384161790559589168452828420805482169096179095558383528054909416909355915190917ff8d49fc529812e9a7c5c50e69c20f0dccc0db8fa95c98bc58cc9a4f1c1299eaf91a26040516001600160a01b038216907f9465fa0c962cc76958e6373a993326400c1c94f8be2fe3a952adfa7f60b2ea2690600090a2505050565b611d90611f95565b611d998161236f565b6040516001600160a01b038216907f5ac6c46c93c8d0e53714ba3b53db3e7c046da994313d7ed0d192028bc7c228b090600090a250565b604080517f47e79534a245952e8b16893a336b85a3d9ea9fa8c573f3d803afb92a79469218602082015246918101829052306060820152600091906080016040516020818303038152906040528051906020012091505090565b611e32611f95565b806001600354611e429190613095565b1015611e605760405162461bcd60e51b81526004016106b390612f7c565b6001600160a01b03821615801590611e8257506001600160a01b038216600114155b611e9e5760405162461bcd60e51b81526004016106b390612e5d565b6001600160a01b03838116600090815260026020526040902054811690831614611ef25760405162461bcd60e51b8152602060048201526005602482015264475332303560d81b60448201526064016106b3565b6001600160a01b03828116600081815260026020526040808220805488861684529183208054929095166001600160a01b03199283161790945591815282549091169091556003805491611f45836131a8565b90915550506040516001600160a01b038316907ff8d49fc529812e9a7c5c50e69c20f0dccc0db8fa95c98bc58cc9a4f1c1299eaf90600090a28060045414611f9057611f9081610c1c565b505050565b333014611fcc5760405162461bcd60e51b8152602060048201526005602482015264475330333160d81b60448201526064016106b3565b565b60006001836001811115611fe457611fe4612eca565b03611ffc576000808551602087018986f4905061200c565b600080855160208701888a87f190505b95945050505050565b6000818310156120255781612027565b825b9392505050565b60008282111561203d57600080fd5b60006120498385613095565b949350505050565b6000806001600160a01b03831615612069578261206b565b325b90506001600160a01b0384166121305761209d3a861061208b573a61208d565b855b612097898961253a565b90612505565b91506000816001600160a01b03168360405160006040518083038185875af1925050503d80600081146120ec576040519150601f19603f3d011682016040523d82523d6000602084013e6120f1565b606091505b505090508061212a5760405162461bcd60e51b8152602060048201526005602482015264475330313160d81b60448201526064016106b3565b5061217f565b61213e85612097898961253a565b915061214b84828461262f565b61217f5760405162461bcd60e51b815260206004820152600560248201526423a998189960d91b60448201526064016106b3565b5095945050505050565b600454156121c15760405162461bcd60e51b8152602060048201526005602482015264047533230360dc1b60448201526064016106b3565b81518111156121e25760405162461bcd60e51b81526004016106b390612f7c565b600181101561221b5760405162461bcd60e51b815260206004820152600560248201526423a999181960d91b60448201526064016106b3565b600160005b835181101561233c57600084828151811061223d5761223d6130a8565b6020026020010151905060006001600160a01b0316816001600160a01b03161415801561227457506001600160a01b038116600114155b801561228957506001600160a01b0381163014155b80156122a75750806001600160a01b0316836001600160a01b031614155b6122c35760405162461bcd60e51b81526004016106b390612e5d565b6001600160a01b0381811660009081526002602052604090205416156122fb5760405162461bcd60e51b81526004016106b390612e7c565b6001600160a01b03928316600090815260026020526040902080546001600160a01b031916938216939093179092558061233481612eb1565b915050612220565b506001600160a01b0316600090815260026020526040902080546001600160a01b03191660011790559051600355600455565b306001600160a01b038216036123af5760405162461bcd60e51b8152602060048201526005602482015264047533430360dc1b60448201526064016106b3565b7f6c9a6c4a39284e37ed1cf53d337577d14212a4870fb976a4366c693b939918d555565b600160008190526020527fcc69885fda6bcc1a4ace058b4a62bf5e179ea78fd58a1ccd71c22cc9b688792f546001600160a01b03161561243d5760405162461bcd60e51b8152602060048201526005602482015264047533130360dc1b60448201526064016106b3565b6001600081905260208190527fcc69885fda6bcc1a4ace058b4a62bf5e179ea78fd58a1ccd71c22cc9b688792f80546001600160a01b03191690911790556001600160a01b038216156107ac57813b6124c05760405162461bcd60e51b815260206004820152600560248201526423a998181960d91b60448201526064016106b3565b6124d1826000836001600019611fce565b6107ac5760405162461bcd60e51b8152602060048201526005602482015264047533030360dc1b60448201526064016106b3565b600082600003612517575060006107e5565b60006125238385612f65565b9050826125308583613073565b1461202757600080fd5b6000806125478385613060565b90508381101561202757600080fd5b606060007fbb8310d486368db6bd6f849402fdd73ad53d316b5a4b2644ad6efe0f941286d860001b8d8d8d8d6040516125909291906131bf565b6040519081900381206125b6949392918e908e908e908e908e908e908e906020016131cf565b60408051601f1981840301815291905280516020909101209050601960f81b600160f81b6125e2611dd0565b6040516001600160f81b031993841660208201529290911660218301526022820152604281018290526062016040516020818303038152906040529150509b9a5050505050505050505050565b604080516001600160a01b03841660248201526044808201849052825180830390910181526064909101909152602080820180516001600160e01b031663a9059cbb60e01b1781528251600093929184919082896127105a03f13d80156126a157602081146126a957600093506126b4565b8193506126b4565b600051158215171593505b5050509392505050565b6001600160a01b03811681146126d357600080fd5b50565b80356126e1816126be565b919050565b600080604083850312156126f957600080fd5b8235612704816126be565b946020939093013593505050565b60006020828403121561272457600080fd5b8135612027816126be565b634e487b7160e01b600052604160045260246000fd5b600082601f83011261275657600080fd5b813567ffffffffffffffff808211156127715761277161272f565b604051601f8301601f19908116603f011681019082821181831017156127995761279961272f565b816040528381528660208588010111156127b257600080fd5b836020870160208301376000602085830101528094505050505092915050565b8035600281106126e157600080fd5b600080600080608085870312156127f757600080fd5b8435612802816126be565b935060208501359250604085013567ffffffffffffffff81111561282557600080fd5b61283187828801612745565b925050612840606086016127d2565b905092959194509250565b6000815180845260005b8181101561287157602081850181015186830182015201612855565b506000602082860101526020601f19601f83011685010191505092915050565b8215158152604060208201526000612049604083018461284b565b600080604083850312156128bf57600080fd5b50508035926020909101359150565b602081526000612027602083018461284b565b6000602082840312156128f357600080fd5b5035919050565b60008083601f84011261290c57600080fd5b50813567ffffffffffffffff81111561292457600080fd5b60208301915083602082850101111561293c57600080fd5b9250929050565b60008060008060008060008060008060006101408c8e03121561296557600080fd5b61296e8c6126d6565b9a5060208c0135995067ffffffffffffffff8060408e0135111561299157600080fd5b6129a18e60408f01358f016128fa565b909a5098506129b260608e016127d2565b975060808d0135965060a08d0135955060c08d013594506129d560e08e016126d6565b93506129e46101008e016126d6565b9250806101208e013511156129f857600080fd5b50612a0a8d6101208e01358e01612745565b90509295989b509295989b9093969950565b600080600060608486031215612a3157600080fd5b83359250602084013567ffffffffffffffff80821115612a5057600080fd5b612a5c87838801612745565b93506040860135915080821115612a7257600080fd5b50612a7f86828701612745565b9150509250925092565b600081518084526020808501945080840160005b83811015612ac25781516001600160a01b031687529582019590820190600101612a9d565b509495945050505050565b6020815260006120276020830184612a89565b60008060408385031215612af357600080fd5b8235612afe816126be565b9150602083013567ffffffffffffffff811115612b1a57600080fd5b612b2685828601612745565b9150509250929050565b6000806000806000806000806000806101008b8d031215612b5057600080fd5b8a3567ffffffffffffffff80821115612b6857600080fd5b818d0191508d601f830112612b7c57600080fd5b813581811115612b8b57600080fd5b8e60208260051b8501011115612ba057600080fd5b60208381019d50909b508d01359950612bbb60408e016126d6565b985060608d0135915080821115612bd157600080fd5b50612bde8d828e016128fa565b9097509550612bf1905060808c016126d6565b9350612bff60a08c016126d6565b925060c08b01359150612c1460e08c016126d6565b90509295989b9194979a5092959850565b604081526000612c386040830185612a89565b905060018060a01b03831660208301529392505050565b600080600080600060a08688031215612c6757600080fd5b8535612c72816126be565b945060208601359350604086013567ffffffffffffffff80821115612c9657600080fd5b612ca289838a01612745565b94506060880135915080821115612cb857600080fd5b50612cc588828901612745565b95989497509295608001359392505050565b60008060008060008060008060008060006101408c8e031215612cf957600080fd5b8b35612d04816126be565b9a5060208c0135995060408c013567ffffffffffffffff811115612d2757600080fd5b612d338e828f016128fa565b909a509850612d46905060608d016127d2565b965060808c0135955060a08c0135945060c08c0135935060e08c0135612d6b816126be565b92506101008c0135612d7c816126be565b809250506101208c013590509295989b509295989b9093969950565b60008060408385031215612dab57600080fd5b8235612db6816126be565b91506020830135612dc6816126be565b809150509250929050565b600080600060608486031215612de657600080fd5b8335612df1816126be565b92506020840135612e01816126be565b91506040840135612e11816126be565b809150509250925092565b600080600060608486031215612e3157600080fd5b8335612e3c816126be565b92506020840135612e4c816126be565b929592945050506040919091013590565b602080825260059082015264475332303360d81b604082015260600190565b60208082526005908201526411d4cc8c0d60da1b604082015260600190565b634e487b7160e01b600052601160045260246000fd5b600060018201612ec357612ec3612e9b565b5060010190565b634e487b7160e01b600052602160045260246000fd5b60028110612efe57634e487b7160e01b600052602160045260246000fd5b9052565b600060018060a01b03808816835286602084015260a06040840152612f2a60a084018761284b565b9150612f396060840186612ee0565b8084166080840152509695505050505050565b600060208284031215612f5e57600080fd5b5051919050565b80820281158282048414176107e5576107e5612e9b565b602080825260059082015264475332303160d81b604082015260600190565b6001600160a01b038d168152602081018c90526101606040820181905281018a905260006101808b8d828501376000838d01820152601f8c01601f19168301612fe7606085018d612ee0565b8a60808501528960a08501528860c085015261300e60e08501896001600160a01b03169052565b6001600160a01b03871661010085015281848203016101208501526130358282018761284b565b9250505061304f6101408301846001600160a01b03169052565b9d9c50505050505050505050505050565b808201808211156107e5576107e5612e9b565b60008261309057634e487b7160e01b600052601260045260246000fd5b500490565b818103818111156107e5576107e5612e9b565b634e487b7160e01b600052603260045260246000fd5b6080808252810185905260008660a08301825b888110156131015782356130e4816126be565b6001600160a01b03168252602092830192909101906001016130d1565b50602084019690965250506001600160a01b039283166040820152911660609091015292915050565b828152604060208201526000612049604083018461284b565b60006020828403121561315557600080fd5b81516001600160e01b03198116811461202757600080fd5b60ff82811682821603908111156107e5576107e5612e9b565b60006020828403121561319857600080fd5b8151801515811461202757600080fd5b6000816131b7576131b7612e9b565b506000190190565b8183823760009101908152919050565b8b81526001600160a01b038b81166020830152604082018b9052606082018a9052610160820190613203608084018b612ee0565b60a083019890985260c082019690965260e081019490945291851661010084015290931661012082015261014001919091529594505050505056fea2646970667358221220d6fc0780f526b138e0298d02e0a4a35e280b184f92cfd2b2694a234e36f1c84564736f6c63430008130033",
    "linkReferences": {}
  },
  "methodIdentifiers": {
    "VERSION()": "ffa1ad74",
    "addOwnerWithThreshold(address,uint256)": "0d582f13",
    "approveHash(bytes32)": "d4d9bdcd",
    "approvedHashes(address,bytes32)": "7d832974",
    "changeThreshold(uint256)": "694e80c3",
    "checkNSignatures(address,bytes32,bytes,bytes,uint256)": "cd5d1f77",
    "checkSignatures(bytes32,bytes,bytes)": "934f3a11",
    "disableModule(address,address)": "e009cfde",
    "domainSeparator()": "f698da25",
    "enableModule(address)": "610b5925",
    "execTransaction(address,uint256,bytes,uint8,uint256,uint256,uint256,address,address,bytes)": "6a761202",
    "execTransactionFromModule(address,uint256,bytes,uint8)": "468721a7",
    "execTransactionFromModuleReturnData(address,uint256,bytes,uint8)": "5229073f",
    "getModulesPaginated(address,uint256)": "cc2f8452",
    "getOwners()": "a0e67e2b",
    "getStorageAt(uint256,uint256)": "5624b25b",
    "getThreshold()": "e75235b8",
    "getTransactionHash(address,uint256,bytes,uint8,uint256,uint256,uint256,address,address,uint256)": "d8d11f78",
    "isModuleEnabled(address)": "2d9ad53d",
    "isOwner(address)": "2f54bf6e",
    "nonce()": "affed0e0",
    "removeOwner(address,address,uint256)": "f8dc5dd9",
    "setFallbackHandler(address)": "f08a0323",
    "setGuard(address)": "e19a9dd9",
    "setup(address[],uint256,address,bytes,address,address,uint256,address)": "b63e800d",
    "signedMessages(bytes32)": "5ae6bd37",
    "simulateAndRevert(address,bytes)": "b4faba09",
    "swapOwner(address,address,address)": "e318b52b"
  },
  "id": 0
}