{"contractName":"GnosisSafeProxyFactory","abi":[{"anonymous":false,"inputs":[{"indexed":false,"internalType":"contract GnosisSafeProxy","name":"proxy","type":"address"}],"name":"ProxyCreation","type":"event"},{"constant":false,"inputs":[{"internalType":"address","name":"masterCopy","type":"address"},{"internalType":"bytes","name":"data","type":"bytes"}],"name":"createProxy","outputs":[{"internalType":"contract GnosisSafeProxy","name":"proxy","type":"address"}],"payable":false,"stateMutability":"nonpayable","type":"function"},{"constant":true,"inputs":[],"name":"proxyRuntimeCode","outputs":[{"internalType":"bytes","name":"","type":"bytes"}],"payable":false,"stateMutability":"pure","type":"function"},{"constant":true,"inputs":[],"name":"proxyCreationCode","outputs":[{"internalType":"bytes","name":"","type":"bytes"}],"payable":false,"stateMutability":"pure","type":"function"},{"constant":false,"inputs":[{"internalType":"address","name":"_mastercopy","type":"address"},{"internalType":"bytes","name":"initializer","type":"bytes"},{"internalType":"uint256","name":"saltNonce","type":"uint256"}],"name":"createProxyWithNonce","outputs":[{"internalType":"contract GnosisSafeProxy","name":"proxy","type":"address"}],"payable":false,"stateMutability":"nonpayable","type":"function"},{"constant":false,"inputs":[{"internalType":"address","name":"_mastercopy","type":"address"},{"internalType":"bytes","name":"initializer","type":"bytes"},{"internalType":"uint256","name":"saltNonce","type":"uint256"},{"internalType":"contract IProxyCreationCallback","name":"callback","type":"address"}],"name":"createProxyWithCallback","outputs":[{"internalType":"contract GnosisSafeProxy","name":"proxy","type":"address"}],"payable":false,"stateMutability":"nonpayable","type":"function"},{"constant":false,"inputs":[{"internalType":"address","name":"_mastercopy","type":"address"},{"internalType":"bytes","name":"initializer","type":"bytes"},{"internalType":"uint256","name":"saltNonce","type":"uint256"}],"name":"calculateCreateProxyWithNonceAddress","outputs":[{"internalType":"contract GnosisSafeProxy","name":"proxy","type":"address"}],"payable":false,"stateMutability":"nonpayable","type":"function"}],"bytecode":"0x608060405234801561001057600080fd5b50610f73806100206000396000f3fe608060405234801561001057600080fd5b50600436106100625760003560e01c80631688f0b9146100675780632500510e1461018c57806353e5d9351461026f57806361b69abd146102f2578063addacc0f1461040d578063d18af54d14610490575b600080fd5b61014a6004803603606081101561007d57600080fd5b81019080803573ffffffffffffffffffffffffffffffffffffffff169060200190929190803590602001906401000000008111156100ba57600080fd5b8201836020820111156100cc57600080fd5b803590602001918460018302840111640100000000831117156100ee57600080fd5b91908080601f016020809104026020016040519081016040528093929190818152602001838380828437600081840152601f19601f820116905080830192505050505050509192919290803590602001909291905050506105d5565b604051808273ffffffffffffffffffffffffffffffffffffffff1673ffffffffffffffffffffffffffffffffffffffff16815260200191505060405180910390f35b61022d600480360360608110156101a257600080fd5b81019080803573ffffffffffffffffffffffffffffffffffffffff169060200190929190803590602001906401000000008111156101df57600080fd5b8201836020820111156101f157600080fd5b8035906020019184600183028401116401000000008311171561021357600080fd5b909192939192939080359060200190929190505050610674565b604051808273ffffffffffffffffffffffffffffffffffffffff1673ffffffffffffffffffffffffffffffffffffffff16815260200191505060405180910390f35b6102776107b7565b6040518080602001828103825283818151815260200191508051906020019080838360005b838110156102b757808201518184015260208101905061029c565b50505050905090810190601f1680156102e45780820380516001836020036101000a031916815260200191505b509250505060405180910390f35b6103cb6004803603604081101561030857600080fd5b81019080803573ffffffffffffffffffffffffffffffffffffffff1690602001909291908035906020019064010000000081111561034557600080fd5b82018360208201111561035757600080fd5b8035906020019184600183028401116401000000008311171561037957600080fd5b91908080601f016020809104026020016040519081016040528093929190818152602001838380828437600081840152601f19601f8201169050808301925050505050505091929192905050506107e2565b604051808273ffffffffffffffffffffffffffffffffffffffff1673ffffffffffffffffffffffffffffffffffffffff16815260200191505060405180910390f35b6104156108d5565b6040518080602001828103825283818151815260200191508051906020019080838360005b8381101561045557808201518184015260208101905061043a565b50505050905090810190601f1680156104825780820380516001836020036101000a031916815260200191505b509250505060405180910390f35b610593600480360360808110156104a657600080fd5b81019080803573ffffffffffffffffffffffffffffffffffffffff169060200190929190803590602001906401000000008111156104e357600080fd5b8201836020820111156104f557600080fd5b8035906020019184600183028401116401000000008311171561051757600080fd5b91908080601f016020809104026020016040519081016040528093929190818152602001838380828437600081840152601f19601f82011690508083019250505050505050919291929080359060200190929190803573ffffffffffffffffffffffffffffffffffffffff169060200190929190505050610900565b604051808273ffffffffffffffffffffffffffffffffffffffff1673ffffffffffffffffffffffffffffffffffffffff16815260200191505060405180910390f35b60006105e2848484610af1565b905060008351111561060a5760008060008551602087016000865af1141561060957600080fd5b5b7fa38789425dbeee0239e16ff2d2567e31720127fbc6430758c1a4efc6aef29f8081604051808273ffffffffffffffffffffffffffffffffffffffff1673ffffffffffffffffffffffffffffffffffffffff16815260200191505060405180910390a19392505050565b60006106c58585858080601f016020809104026020016040519081016040528093929190818152602001838380828437600081840152601f19601f8201169050808301925050505050505084610af1565b905080604051602001808273ffffffffffffffffffffffffffffffffffffffff1673ffffffffffffffffffffffffffffffffffffffff1660601b81526014019150506040516020818303038152906040526040517f08c379a00000000000000000000000000000000000000000000000000000000081526004018080602001828103825283818151815260200191508051906020019080838360005b8381101561077c578082015181840152602081019050610761565b50505050905090810190601f1680156107a95780820380516001836020036101000a031916815260200191505b509250505060405180910390fd5b6060604051806020016107c990610c94565b6020820181038252601f19601f82011660405250905090565b6000826040516107f190610c94565b808273ffffffffffffffffffffffffffffffffffffffff1673ffffffffffffffffffffffffffffffffffffffff168152602001915050604051809103906000f080158015610843573d6000803e3d6000fd5b50905060008251111561086c5760008060008451602086016000865af1141561086b57600080fd5b5b7fa38789425dbeee0239e16ff2d2567e31720127fbc6430758c1a4efc6aef29f8081604051808273ffffffffffffffffffffffffffffffffffffffff1673ffffffffffffffffffffffffffffffffffffffff16815260200191505060405180910390a192915050565b6060604051806020016108e790610ca1565b6020820181038252601f19601f82011660405250905090565b6000808383604051602001808381526020018273ffffffffffffffffffffffffffffffffffffffff1673ffffffffffffffffffffffffffffffffffffffff1660601b8152601401925050506040516020818303038152906040528051906020012060001c90506109718686836105d5565b9150600073ffffffffffffffffffffffffffffffffffffffff168373ffffffffffffffffffffffffffffffffffffffff1614610ae8578273ffffffffffffffffffffffffffffffffffffffff16631e52b518838888886040518563ffffffff1660e01b8152600401808573ffffffffffffffffffffffffffffffffffffffff1673ffffffffffffffffffffffffffffffffffffffff1681526020018473ffffffffffffffffffffffffffffffffffffffff1673ffffffffffffffffffffffffffffffffffffffff16815260200180602001838152602001828103825284818151815260200191508051906020019080838360005b83811015610a80578082015181840152602081019050610a65565b50505050905090810190601f168015610aad5780820380516001836020036101000a031916815260200191505b5095505050505050600060405180830381600087803b158015610acf57600080fd5b505af1158015610ae3573d6000803e3d6000fd5b505050505b50949350505050565b6000808380519060200120836040516020018083815260200182815260200192505050604051602081830303815290604052805190602001209050606060405180602001610b3e90610c94565b6020820181038252601f19601f820116604052508673ffffffffffffffffffffffffffffffffffffffff166040516020018083805190602001908083835b60208310610b9f5780518252602082019150602081019050602083039250610b7c565b6001836020036101000a038019825116818451168082178552505050505050905001828152602001925050506040516020818303038152906040529050818151826020016000f59250600073ffffffffffffffffffffffffffffffffffffffff168373ffffffffffffffffffffffffffffffffffffffff161415610c8b576040517f08c379a00000000000000000000000000000000000000000000000000000000081526004018080602001828103825260138152602001807f437265617465322063616c6c206661696c65640000000000000000000000000081525060200191505060405180910390fd5b50509392505050565b6101e780610cae83390190565b60aa80610e958339019056fe608060405234801561001057600080fd5b506040516101e73803806101e78339818101604052602081101561003357600080fd5b8101908080519060200190929190505050600073ffffffffffffffffffffffffffffffffffffffff168173ffffffffffffffffffffffffffffffffffffffff1614156100ca576040517f08c379a00000000000000000000000000000000000000000000000000000000081526004018080602001828103825260248152602001806101c36024913960400191505060405180910390fd5b806000806101000a81548173ffffffffffffffffffffffffffffffffffffffff021916908373ffffffffffffffffffffffffffffffffffffffff1602179055505060aa806101196000396000f3fe608060405273ffffffffffffffffffffffffffffffffffffffff600054167fa619486e0000000000000000000000000000000000000000000000000000000060003514156050578060005260206000f35b3660008037600080366000845af43d6000803e60008114156070573d6000fd5b3d6000f3fea265627a7a723158204b08018370a1d5319125710a6af02b5f94db8bd8ff2071a1b24df0216bfcc09564736f6c634300050e0032496e76616c6964206d617374657220636f707920616464726573732070726f7669646564608060405273ffffffffffffffffffffffffffffffffffffffff600054167fa619486e0000000000000000000000000000000000000000000000000000000060003514156050578060005260206000f35b3660008037600080366000845af43d6000803e60008114156070573d6000fd5b3d6000f3fea265627a7a723158204b08018370a1d5319125710a6af02b5f94db8bd8ff2071a1b24df0216bfcc09564736f6c634300050e0032a265627a7a723158203ff97fdaf7e2ea9dfd259160f840fee61d4c0b304fae766719faf7e546039ba464736f6c634300050e0032","source":"pragma solidity ^0.5.3;\nimport \"./GnosisSafeProxy.sol\";\nimport \"./IProxyCreationCallback.sol\";\n\n/// @title Proxy Factory - Allows to create new proxy contact and execute a message call to the new proxy within one transaction.\n/// @author Stefan George - <stefan@gnosis.pm>\ncontract GnosisSafeProxyFactory {\n\n    event ProxyCreation(GnosisSafeProxy proxy);\n\n    /// @dev Allows to create new proxy contact and execute a message call to the new proxy within one transaction.\n    /// @param masterCopy Address of master copy.\n    /// @param data Payload for message call sent to new proxy contract.\n    function createProxy(address masterCopy, bytes memory data)\n        public\n        returns (GnosisSafeProxy proxy)\n    {\n        proxy = new GnosisSafeProxy(masterCopy);\n        if (data.length > 0)\n            // solium-disable-next-line security/no-inline-assembly\n            assembly {\n                if eq(call(gas, proxy, 0, add(data, 0x20), mload(data), 0, 0), 0) { revert(0, 0) }\n            }\n        emit ProxyCreation(proxy);\n    }\n\n    /// @dev Allows to retrieve the runtime code of a deployed Proxy. This can be used to check that the expected Proxy was deployed.\n    function proxyRuntimeCode() public pure returns (bytes memory) {\n        return type(GnosisSafeProxy).runtimeCode;\n    }\n\n    /// @dev Allows to retrieve the creation code used for the Proxy deployment. With this it is easily possible to calculate predicted address.\n    function proxyCreationCode() public pure returns (bytes memory) {\n        return type(GnosisSafeProxy).creationCode;\n    }\n\n    /// @dev Allows to create new proxy contact using CREATE2 but it doesn't run the initializer.\n    ///      This method is only meant as an utility to be called from other methods\n    /// @param _mastercopy Address of master copy.\n    /// @param initializer Payload for message call sent to new proxy contract.\n    /// @param saltNonce Nonce that will be used to generate the salt to calculate the address of the new proxy contract.\n    function deployProxyWithNonce(address _mastercopy, bytes memory initializer, uint256 saltNonce)\n        internal\n        returns (GnosisSafeProxy proxy)\n    {\n        // If the initializer changes the proxy address should change too. Hashing the initializer data is cheaper than just concatinating it\n        bytes32 salt = keccak256(abi.encodePacked(keccak256(initializer), saltNonce));\n        bytes memory deploymentData = abi.encodePacked(type(GnosisSafeProxy).creationCode, uint256(_mastercopy));\n        // solium-disable-next-line security/no-inline-assembly\n        assembly {\n            proxy := create2(0x0, add(0x20, deploymentData), mload(deploymentData), salt)\n        }\n        require(address(proxy) != address(0), \"Create2 call failed\");\n    }\n\n    /// @dev Allows to create new proxy contact and execute a message call to the new proxy within one transaction.\n    /// @param _mastercopy Address of master copy.\n    /// @param initializer Payload for message call sent to new proxy contract.\n    /// @param saltNonce Nonce that will be used to generate the salt to calculate the address of the new proxy contract.\n    function createProxyWithNonce(address _mastercopy, bytes memory initializer, uint256 saltNonce)\n        public\n        returns (GnosisSafeProxy proxy)\n    {\n        proxy = deployProxyWithNonce(_mastercopy, initializer, saltNonce);\n        if (initializer.length > 0)\n            // solium-disable-next-line security/no-inline-assembly\n            assembly {\n                if eq(call(gas, proxy, 0, add(initializer, 0x20), mload(initializer), 0, 0), 0) { revert(0,0) }\n            }\n        emit ProxyCreation(proxy);\n    }\n\n    /// @dev Allows to create new proxy contact, execute a message call to the new proxy and call a specified callback within one transaction\n    /// @param _mastercopy Address of master copy.\n    /// @param initializer Payload for message call sent to new proxy contract.\n    /// @param saltNonce Nonce that will be used to generate the salt to calculate the address of the new proxy contract.\n    /// @param callback Callback that will be invoced after the new proxy contract has been successfully deployed and initialized.\n    function createProxyWithCallback(address _mastercopy, bytes memory initializer, uint256 saltNonce, IProxyCreationCallback callback)\n        public\n        returns (GnosisSafeProxy proxy)\n    {\n        uint256 saltNonceWithCallback = uint256(keccak256(abi.encodePacked(saltNonce, callback)));\n        proxy = createProxyWithNonce(_mastercopy, initializer, saltNonceWithCallback);\n        if (address(callback) != address(0))\n            callback.proxyCreated(proxy, _mastercopy, initializer, saltNonce);\n    }\n\n    /// @dev Allows to get the address for a new proxy contact created via `createProxyWithNonce`\n    ///      This method is only meant for address calculation purpose when you use an initializer that would revert,\n    ///      therefore the response is returned with a revert. When calling this method set `from` to the address of the proxy factory.\n    /// @param _mastercopy Address of master copy.\n    /// @param initializer Payload for message call sent to new proxy contract.\n    /// @param saltNonce Nonce that will be used to generate the salt to calculate the address of the new proxy contract.\n    function calculateCreateProxyWithNonceAddress(address _mastercopy, bytes calldata initializer, uint256 saltNonce)\n        external\n        returns (GnosisSafeProxy proxy)\n    {\n        proxy = deployProxyWithNonce(_mastercopy, initializer, saltNonce);\n        revert(string(abi.encodePacked(proxy)));\n    }\n\n}\n","compiler":{"name":"solc","version":"0.5.14+commit.01f1aaa4.Emscripten.clang"},"schemaVersion":"2.0.3","updatedAt":"2020-09-04T14:15:51.331Z"}