{
  "contractName": "Module",
  "abi": [
    {
      "constant": true,
      "inputs": [],
      "name": "manager",
      "outputs": [
        {
          "name": "",
          "type": "address"
        }
      ],
      "payable": false,
      "stateMutability": "view",
      "type": "function"
    },
    {
      "constant": false,
      "inputs": [
        {
          "name": "_masterCopy",
          "type": "address"
        }
      ],
      "name": "changeMasterCopy",
      "outputs": [],
      "payable": false,
      "stateMutability": "nonpayable",
      "type": "function"
    }
  ],
  "bytecode": "0x608060405234801561001057600080fd5b506102d4806100206000396000f3fe608060405234801561001057600080fd5b50600436106100365760003560e01c8063481c6a751461003b5780637de7edef14610085575b600080fd5b6100436100c9565b604051808273ffffffffffffffffffffffffffffffffffffffff1673ffffffffffffffffffffffffffffffffffffffff16815260200191505060405180910390f35b6100c76004803603602081101561009b57600080fd5b81019080803573ffffffffffffffffffffffffffffffffffffffff1690602001909291905050506100ef565b005b600160009054906101000a900473ffffffffffffffffffffffffffffffffffffffff1681565b600160009054906101000a900473ffffffffffffffffffffffffffffffffffffffff1673ffffffffffffffffffffffffffffffffffffffff163373ffffffffffffffffffffffffffffffffffffffff1614610195576040517f08c379a00000000000000000000000000000000000000000000000000000000081526004018080602001828103825260268152602001806102836026913960400191505060405180910390fd5b600073ffffffffffffffffffffffffffffffffffffffff168173ffffffffffffffffffffffffffffffffffffffff16141561021b576040517f08c379a000000000000000000000000000000000000000000000000000000000815260040180806020018281038252602481526020018061025f6024913960400191505060405180910390fd5b806000806101000a81548173ffffffffffffffffffffffffffffffffffffffff021916908373ffffffffffffffffffffffffffffffffffffffff1602179055505056fe496e76616c6964206d617374657220636f707920616464726573732070726f76696465644d6574686f642063616e206f6e6c792062652063616c6c65642066726f6d206d616e61676572a165627a7a723058203316e8bdabf63a2dc39c69ae8d527adc02c361ee84e514386a31c99ad1e7e3fd0029",
  "source": "pragma solidity ^0.5.0;\nimport \"../common/MasterCopy.sol\";\nimport \"./ModuleManager.sol\";\n\n\n/// @title Module - Base class for modules.\n/// @author Stefan George - <stefan@gnosis.pm>\n/// @author Richard Meissner - <richard@gnosis.pm>\ncontract Module is MasterCopy {\n\n    ModuleManager public manager;\n\n    modifier authorized() {\n        require(msg.sender == address(manager), \"Method can only be called from manager\");\n        _;\n    }\n\n    function setManager()\n        internal\n    {\n        // manager can only be 0 at initalization of contract.\n        // Check ensures that setup function can only be called once.\n        require(address(manager) == address(0), \"Manager has already been set\");\n        manager = ModuleManager(msg.sender);\n    }\n}\n",
  "sourcePath": "/media/000/Documents/Circles/safe-contracts/contracts/base/Module.sol",
  "compiler": {
    "name": "solc",
    "version": "0.5.7+commit.6da8b019.Emscripten.clang"
  },
  "schemaVersion": "2.0.3",
  "updatedAt": "2019-11-01T16:23:27.982Z"
}