{
  "contractName": "MultiSend",
  "abi": [
    {
      "inputs": [],
      "payable": false,
      "stateMutability": "nonpayable",
      "type": "constructor"
    },
    {
      "constant": false,
      "inputs": [
        {
          "internalType": "bytes",
          "name": "transactions",
          "type": "bytes"
        }
      ],
      "name": "multiSend",
      "outputs": [],
      "payable": false,
      "stateMutability": "nonpayable",
      "type": "function"
    }
  ],
  "bytecode": "0x608060405234801561001057600080fd5b5060405180807f6d756c746973656e642e67756172642e627974657333320000000000000000008152506017019050604051809103902060008190555061026c8061005c6000396000f3fe608060405234801561001057600080fd5b506004361061002b5760003560e01c80638d80ff0a14610030575b600080fd5b6100e96004803603602081101561004657600080fd5b810190808035906020019064010000000081111561006357600080fd5b82018360208201111561007557600080fd5b8035906020019184600183028401116401000000008311171561009757600080fd5b91908080601f016020809104026020016040519081016040528093929190818152602001838380828437600081840152601f19601f8201169050808301925050505050505091929192905050506100eb565b005b60405180807f6d756c746973656e642e67756172642e6279746573333200000000000000000081525060170190506040518091039020600054141561017b576040517f08c379a00000000000000000000000000000000000000000000000000000000081526004018080602001828103825260308152602001806102086030913960400191505060405180910390fd5b805160205b81811015610202578083015160f81c6001820184015160601c6015830185015160358401860151605585018701600085600081146101c557600181146101d5576101e0565b6000808585888a5af191506101e0565b6000808585895af491505b5060008114156101ef57600080fd5b8260550187019650505050505050610180565b50505056fe4d756c746953656e642073686f756c64206f6e6c792062652063616c6c6564207669612064656c656761746563616c6ca265627a7a723158207c262fe19c57f961a1e1b75ed0ff1ca685c051a9aa65deda0ad2ab7571ca49ef64736f6c634300050e0032",
  "source": "pragma solidity >=0.5.0 <0.7.0;\n\n\n/// @title Multi Send - Allows to batch multiple transactions into one.\n/// @author Nick Dodson - <nick.dodson@consensys.net>\n/// @author Gonçalo Sá - <goncalo.sa@consensys.net>\n/// @author Stefan George - <stefan@gnosis.io>\n/// @author Richard Meissner - <richard@gnosis.io>\ncontract MultiSend {\n\n    bytes32 constant private GUARD_VALUE = keccak256(\"multisend.guard.bytes32\");\n\n    bytes32 guard;\n\n    constructor() public {\n        guard = GUARD_VALUE;\n    }\n\n    /// @dev Sends multiple transactions and reverts all if one fails.\n    /// @param transactions Encoded transactions. Each transaction is encoded as a packed bytes of\n    ///                     operation as a uint8 with 0 for a call or 1 for a delegatecall (=> 1 byte),\n    ///                     to as a address (=> 20 bytes),\n    ///                     value as a uint256 (=> 32 bytes),\n    ///                     data length as a uint256 (=> 32 bytes),\n    ///                     data as bytes.\n    ///                     see abi.encodePacked for more information on packed encoding\n    function multiSend(bytes memory transactions)\n        public\n    {\n        require(guard != GUARD_VALUE, \"MultiSend should only be called via delegatecall\");\n        // solium-disable-next-line security/no-inline-assembly\n        assembly {\n            let length := mload(transactions)\n            let i := 0x20\n            for { } lt(i, length) { } {\n                // First byte of the data is the operation.\n                // We shift by 248 bits (256 - 8 [operation byte]) it right since mload will always load 32 bytes (a word).\n                // This will also zero out unused data.\n                let operation := shr(0xf8, mload(add(transactions, i)))\n                // We offset the load address by 1 byte (operation byte)\n                // We shift it right by 96 bits (256 - 160 [20 address bytes]) to right-align the data and zero out unused data.\n                let to := shr(0x60, mload(add(transactions, add(i, 0x01))))\n                // We offset the load address by 21 byte (operation byte + 20 address bytes)\n                let value := mload(add(transactions, add(i, 0x15)))\n                // We offset the load address by 53 byte (operation byte + 20 address bytes + 32 value bytes)\n                let dataLength := mload(add(transactions, add(i, 0x35)))\n                // We offset the load address by 85 byte (operation byte + 20 address bytes + 32 value bytes + 32 data length bytes)\n                let data := add(transactions, add(i, 0x55))\n                let success := 0\n                switch operation\n                case 0 { success := call(gas, to, value, data, dataLength, 0, 0) }\n                case 1 { success := delegatecall(gas, to, data, dataLength, 0, 0) }\n                if eq(success, 0) { revert(0, 0) }\n                // Next entry starts at 85 byte + data length\n                i := add(i, add(0x55, dataLength))\n            }\n        }\n    }\n}\n",
  "sourcePath": "/media/000/Documents/Circles/safe-contracts/contracts/libraries/MultiSend.sol",
  "compiler": {
    "name": "solc",
    "version": "0.5.14+commit.01f1aaa4.Emscripten.clang"
  },
  "schemaVersion": "2.0.3",
  "updatedAt": "2020-09-04T14:27:24.798Z"
}