{
  "contractName": "MultiSend",
  "abi": [
    {
      "constant": false,
      "inputs": [
        {
          "name": "transactions",
          "type": "bytes"
        }
      ],
      "name": "multiSend",
      "outputs": [],
      "payable": false,
      "stateMutability": "nonpayable",
      "type": "function"
    }
  ],
  "bytecode": "0x608060405234801561001057600080fd5b506101a5806100206000396000f3fe608060405234801561001057600080fd5b506004361061002b5760003560e01c80638d80ff0a14610030575b600080fd5b6100e96004803603602081101561004657600080fd5b810190808035906020019064010000000081111561006357600080fd5b82018360208201111561007557600080fd5b8035906020019184600183028401116401000000008311171561009757600080fd5b91908080601f016020809104026020016040519081016040528093929190818152602001838380828437600081840152601f19601f8201169050808301925050505050505091929192905050506100eb565b005b805160205b81811015610174578083015160208201840151604083018501516080840186015160a0850187016000856000811461012f576001811461013f5761014a565b6000808585888a5af1915061014a565b6000808585895af491505b50600081141561015957600080fd5b602080601f8501040260a001870196505050505050506100f0565b50505056fea165627a7a72305820fd8ce7bdebbf8f694042c023b48f1b4d1f3c79861e730407a2460a5c12a64c250029",
  "source": "pragma solidity ^0.5.0;\n\n\n/// @title Multi Send - Allows to batch multiple transactions into one.\n/// @author Nick Dodson - <nick.dodson@consensys.net>\n/// @author Gonçalo Sá - <goncalo.sa@consensys.net>\n/// @author Stefan George - <stefan@gnosis.pm>\ncontract MultiSend {\n\n    /// @dev Sends multiple transactions and reverts all if one fails.\n    /// @param transactions Encoded transactions. Each transaction is encoded as a \n    ///                     tuple(operation,address,uint256,bytes), where operation \n    ///                     can be 0 for a call or 1 for a delegatecall. The bytes \n    ///                     of all encoded transactions are concatenated to form the input.\n    function multiSend(bytes memory transactions)\n        public\n    {\n        // solium-disable-next-line security/no-inline-assembly\n        assembly {\n            let length := mload(transactions)\n            let i := 0x20\n            for { } lt(i, length) { } {\n                let operation := mload(add(transactions, i))\n                let to := mload(add(transactions, add(i, 0x20)))\n                let value := mload(add(transactions, add(i, 0x40)))\n                let dataLength := mload(add(transactions, add(i, 0x80)))\n                let data := add(transactions, add(i, 0xa0))\n                let success := 0\n                switch operation \n                case 0 { success := call(gas, to, value, data, dataLength, 0, 0) }\n                case 1 { success := delegatecall(gas, to, data, dataLength, 0, 0) }\n                if eq(success, 0) { revert(0, 0) }\n                i := add(i, add(0xa0, mul(div(add(dataLength, 0x1f), 0x20), 0x20)))\n            }\n        }\n    }\n}\n",
  "sourcePath": "/media/000/Documents/Circles/safe-contracts/contracts/libraries/MultiSend.sol",
  "compiler": {
    "name": "solc",
    "version": "0.5.7+commit.6da8b019.Emscripten.clang"
  },
  "schemaVersion": "2.0.3",
  "updatedAt": "2019-11-01T16:23:27.987Z"
}