{
  "contractName": "StateChannelModule",
  "abi": [
    {
      "constant": true,
      "inputs": [],
      "name": "manager",
      "outputs": [
        {
          "name": "",
          "type": "address"
        }
      ],
      "payable": false,
      "stateMutability": "view",
      "type": "function"
    },
    {
      "constant": false,
      "inputs": [
        {
          "name": "_masterCopy",
          "type": "address"
        }
      ],
      "name": "changeMasterCopy",
      "outputs": [],
      "payable": false,
      "stateMutability": "nonpayable",
      "type": "function"
    },
    {
      "constant": true,
      "inputs": [],
      "name": "NAME",
      "outputs": [
        {
          "name": "",
          "type": "string"
        }
      ],
      "payable": false,
      "stateMutability": "view",
      "type": "function"
    },
    {
      "constant": true,
      "inputs": [
        {
          "name": "",
          "type": "bytes32"
        }
      ],
      "name": "isExecuted",
      "outputs": [
        {
          "name": "",
          "type": "uint256"
        }
      ],
      "payable": false,
      "stateMutability": "view",
      "type": "function"
    },
    {
      "constant": true,
      "inputs": [],
      "name": "VERSION",
      "outputs": [
        {
          "name": "",
          "type": "string"
        }
      ],
      "payable": false,
      "stateMutability": "view",
      "type": "function"
    },
    {
      "constant": false,
      "inputs": [],
      "name": "setup",
      "outputs": [],
      "payable": false,
      "stateMutability": "nonpayable",
      "type": "function"
    },
    {
      "constant": false,
      "inputs": [
        {
          "name": "to",
          "type": "address"
        },
        {
          "name": "value",
          "type": "uint256"
        },
        {
          "name": "data",
          "type": "bytes"
        },
        {
          "name": "operation",
          "type": "uint8"
        },
        {
          "name": "nonce",
          "type": "uint256"
        },
        {
          "name": "signatures",
          "type": "bytes"
        }
      ],
      "name": "execTransaction",
      "outputs": [],
      "payable": false,
      "stateMutability": "nonpayable",
      "type": "function"
    },
    {
      "constant": true,
      "inputs": [
        {
          "name": "to",
          "type": "address"
        },
        {
          "name": "value",
          "type": "uint256"
        },
        {
          "name": "data",
          "type": "bytes"
        },
        {
          "name": "operation",
          "type": "uint8"
        },
        {
          "name": "nonce",
          "type": "uint256"
        }
      ],
      "name": "getTransactionHash",
      "outputs": [
        {
          "name": "",
          "type": "bytes32"
        }
      ],
      "payable": false,
      "stateMutability": "view",
      "type": "function"
    }
  ],
  "bytecode": "0x608060405234801561001057600080fd5b506110a5806100206000396000f3fe608060405234801561001057600080fd5b50600436106100885760003560e01c8063ba0bba401161005b578063ba0bba40146102ae578063e52cb36a146102b8578063f6cc15d0146102fa578063ffa1ad741461048d57610088565b80632b5000411461008d578063481c6a751461019d5780637de7edef146101e7578063a3f4df7e1461022b575b600080fd5b610187600480360360a08110156100a357600080fd5b81019080803573ffffffffffffffffffffffffffffffffffffffff16906020019092919080359060200190929190803590602001906401000000008111156100ea57600080fd5b8201836020820111156100fc57600080fd5b8035906020019184600183028401116401000000008311171561011e57600080fd5b91908080601f016020809104026020016040519081016040528093929190818152602001838380828437600081840152601f19601f820116905080830192505050505050509192919290803560ff16906020019092919080359060200190929190505050610510565b6040518082815260200191505060405180910390f35b6101a56106c6565b604051808273ffffffffffffffffffffffffffffffffffffffff1673ffffffffffffffffffffffffffffffffffffffff16815260200191505060405180910390f35b610229600480360360208110156101fd57600080fd5b81019080803573ffffffffffffffffffffffffffffffffffffffff1690602001909291905050506106ec565b005b61023361085b565b6040518080602001828103825283818151815260200191508051906020019080838360005b83811015610273578082015181840152602081019050610258565b50505050905090810190601f1680156102a05780820380516001836020036101000a031916815260200191505b509250505060405180910390f35b6102b6610894565b005b6102e4600480360360208110156102ce57600080fd5b810190808035906020019092919050505061089e565b6040518082815260200191505060405180910390f35b61048b600480360360c081101561031057600080fd5b81019080803573ffffffffffffffffffffffffffffffffffffffff169060200190929190803590602001909291908035906020019064010000000081111561035757600080fd5b82018360208201111561036957600080fd5b8035906020019184600183028401116401000000008311171561038b57600080fd5b91908080601f016020809104026020016040519081016040528093929190818152602001838380828437600081840152601f19601f820116905080830192505050505050509192919290803560ff169060200190929190803590602001909291908035906020019064010000000081111561040557600080fd5b82018360208201111561041757600080fd5b8035906020019184600183028401116401000000008311171561043957600080fd5b91908080601f016020809104026020016040519081016040528093929190818152602001838380828437600081840152601f19601f8201169050808301925050505050505091929192905050506108b6565b005b610495610b55565b6040518080602001828103825283818151815260200191508051906020019080838360005b838110156104d55780820151818401526020810190506104ba565b50505050905090810190601f1680156105025780820380516001836020036101000a031916815260200191505b509250505060405180910390f35b6000601960f81b600060f81b30888888888860405160200180897effffffffffffffffffffffffffffffffffffffffffffffffffffffffffffff19167effffffffffffffffffffffffffffffffffffffffffffffffffffffffffffff19168152600101887effffffffffffffffffffffffffffffffffffffffffffffffffffffffffffff19167effffffffffffffffffffffffffffffffffffffffffffffffffffffffffffff191681526001018773ffffffffffffffffffffffffffffffffffffffff1673ffffffffffffffffffffffffffffffffffffffff1660601b81526014018673ffffffffffffffffffffffffffffffffffffffff1673ffffffffffffffffffffffffffffffffffffffff1660601b815260140185815260200184805190602001908083835b6020831061065c5780518252602082019150602081019050602083039250610639565b6001836020036101000a03801982511681845116808217855250505050505090500183600281111561068a57fe5b60ff1660f81b81526001018281526020019850505050505050505060405160208183030381529060405280519060200120905095945050505050565b600160009054906101000a900473ffffffffffffffffffffffffffffffffffffffff1681565b600160009054906101000a900473ffffffffffffffffffffffffffffffffffffffff1673ffffffffffffffffffffffffffffffffffffffff163373ffffffffffffffffffffffffffffffffffffffff1614610792576040517f08c379a00000000000000000000000000000000000000000000000000000000081526004018080602001828103825260268152602001806110546026913960400191505060405180910390fd5b600073ffffffffffffffffffffffffffffffffffffffff168173ffffffffffffffffffffffffffffffffffffffff161415610818576040517f08c379a00000000000000000000000000000000000000000000000000000000081526004018080602001828103825260248152602001806110056024913960400191505060405180910390fd5b806000806101000a81548173ffffffffffffffffffffffffffffffffffffffff021916908373ffffffffffffffffffffffffffffffffffffffff16021790555050565b6040518060400160405280601481526020017f5374617465204368616e6e656c204d6f64756c6500000000000000000000000081525081565b61089c610b8e565b565b60026020528060005260406000206000915090505481565b60006108c58787878787610510565b90506000600260008381526020019081526020016000205414610950576040517f08c379a000000000000000000000000000000000000000000000000000000000815260040180806020018281038252601c8152602001807f5472616e73616374696f6e20616c72656164792065786563757465640000000081525060200191505060405180910390fd5b61095a8183610c95565b60016002600083815260200190815260200160002081905550600160009054906101000a900473ffffffffffffffffffffffffffffffffffffffff1673ffffffffffffffffffffffffffffffffffffffff1663468721a7888888886040518563ffffffff1660e01b8152600401808573ffffffffffffffffffffffffffffffffffffffff1673ffffffffffffffffffffffffffffffffffffffff16815260200184815260200180602001836002811115610a1057fe5b60ff168152602001828103825284818151815260200191508051906020019080838360005b83811015610a50578082015181840152602081019050610a35565b50505050905090810190601f168015610a7d5780820380516001836020036101000a031916815260200191505b5095505050505050602060405180830381600087803b158015610a9f57600080fd5b505af1158015610ab3573d6000803e3d6000fd5b505050506040513d6020811015610ac957600080fd5b8101908080519060200190929190505050610b4c576040517f08c379a000000000000000000000000000000000000000000000000000000000815260040180806020018281038252601d8152602001807f436f756c64206e6f742065786563757465207472616e73616374696f6e00000081525060200191505060405180910390fd5b50505050505050565b6040518060400160405280600581526020017f302e312e3000000000000000000000000000000000000000000000000000000081525081565b600073ffffffffffffffffffffffffffffffffffffffff16600160009054906101000a900473ffffffffffffffffffffffffffffffffffffffff1673ffffffffffffffffffffffffffffffffffffffff1614610c52576040517f08c379a000000000000000000000000000000000000000000000000000000000815260040180806020018281038252601c8152602001807f4d616e616765722068617320616c7265616479206265656e207365740000000081525060200191505060405180910390fd5b33600160006101000a81548173ffffffffffffffffffffffffffffffffffffffff021916908373ffffffffffffffffffffffffffffffffffffffff160217905550565b60008090506000806000600160009054906101000a900473ffffffffffffffffffffffffffffffffffffffff1673ffffffffffffffffffffffffffffffffffffffff1663e75235b86040518163ffffffff1660e01b815260040160206040518083038186803b158015610d0757600080fd5b505afa158015610d1b573d6000803e3d6000fd5b505050506040513d6020811015610d3157600080fd5b81019080805190602001909291905050509050600091505b80821015610f3e57610d5c868684610f46565b9250600160009054906101000a900473ffffffffffffffffffffffffffffffffffffffff1673ffffffffffffffffffffffffffffffffffffffff16632f54bf6e846040518263ffffffff1660e01b8152600401808273ffffffffffffffffffffffffffffffffffffffff1673ffffffffffffffffffffffffffffffffffffffff16815260200191505060206040518083038186803b158015610dfd57600080fd5b505afa158015610e11573d6000803e3d6000fd5b505050506040513d6020811015610e2757600080fd5b8101908080519060200190929190505050610eaa576040517f08c379a000000000000000000000000000000000000000000000000000000000815260040180806020018281038252601f8152602001807f5369676e6174757265206e6f742070726f7669646564206279206f776e65720081525060200191505060405180910390fd5b8373ffffffffffffffffffffffffffffffffffffffff168373ffffffffffffffffffffffffffffffffffffffff1611610f2e576040517f08c379a000000000000000000000000000000000000000000000000000000000815260040180806020018281038252602b815260200180611029602b913960400191505060405180910390fd5b8293508180600101925050610d49565b505050505050565b600080600080610f568686610fd5565b80935081945082955050505060018784848460405160008152602001604052604051808581526020018460ff1660ff1681526020018381526020018281526020019450505050506020604051602081039080840390855afa158015610fbf573d6000803e3d6000fd5b5050506020604051035193505050509392505050565b60008060008360410260208101860151925060408101860151915060ff6041820187015116935050925092509256fe496e76616c6964206d617374657220636f707920616464726573732070726f76696465645369676e61747572657320617265206e6f74206f726465726564206279206f776e657220616464726573734d6574686f642063616e206f6e6c792062652063616c6c65642066726f6d206d616e61676572a165627a7a72305820a2cf1fd9378ac7239e966be0385ab7cb3ae7146a3e44d8ba3610f9c1632d70150029",
  "source": "pragma solidity ^0.5.0;\nimport \"../base/Module.sol\";\nimport \"../base/OwnerManager.sol\";\nimport \"../common/SignatureDecoder.sol\";\n\n\n/// @title Gnosis Safe State Module - A module that allows interaction with statechannels.\n/// @author Stefan George - <stefan@gnosis.pm>\n/// @author Richard Meissner - <richard@gnosis.pm>\ncontract StateChannelModule is Module, SignatureDecoder {\n\n    string public constant NAME = \"State Channel Module\";\n    string public constant VERSION = \"0.1.0\";\n\n    // isExecuted mapping allows to check if a transaction (by hash) was already executed.\n    mapping (bytes32 => uint256) public isExecuted;\n\n    /// @dev Setup function sets manager\n    function setup()\n        public\n    {\n        setManager();\n    }\n\n    /// @dev Allows to execute a Safe transaction confirmed by required number of owners.\n    /// @param to Destination address of Safe transaction.\n    /// @param value Ether value of Safe transaction.\n    /// @param data Data payload of Safe transaction.\n    /// @param operation Operation type of Safe transaction.\n    /// @param nonce Nonce used for this Safe transaction.\n    /// @param signatures Packed signature data ({bytes32 r}{bytes32 s}{uint8 v})\n    function execTransaction(\n        address to, \n        uint256 value, \n        bytes memory data, \n        Enum.Operation operation, \n        uint256 nonce,\n        bytes memory signatures\n    )\n        public\n    {\n        bytes32 transactionHash = getTransactionHash(to, value, data, operation, nonce);\n        require(isExecuted[transactionHash] == 0, \"Transaction already executed\");\n        checkHash(transactionHash, signatures);\n        // Mark as executed and execute transaction.\n        isExecuted[transactionHash] = 1;\n        require(manager.execTransactionFromModule(to, value, data, operation), \"Could not execute transaction\");\n    }\n\n    function checkHash(bytes32 transactionHash, bytes memory signatures)\n        internal\n        view\n    {\n        // There cannot be an owner with address 0.\n        address lastOwner = address(0);\n        address currentOwner;\n        uint256 i;\n        uint256 threshold = OwnerManager(address(manager)).getThreshold();\n        // Validate threshold is reached.\n        for (i = 0; i < threshold; i++) {\n            currentOwner = recoverKey(transactionHash, signatures, i);\n            require(OwnerManager(address(manager)).isOwner(currentOwner), \"Signature not provided by owner\");\n            require(currentOwner > lastOwner, \"Signatures are not ordered by owner address\");\n            lastOwner = currentOwner;\n        }\n    }\n\n    /// @dev Returns hash to be signed by owners.\n    /// @param to Destination address.\n    /// @param value Ether value.\n    /// @param data Data payload.\n    /// @param operation Operation type.\n    /// @param nonce Transaction nonce.\n    /// @return Transaction hash.\n    function getTransactionHash(\n        address to, \n        uint256 value, \n        bytes memory data, \n        Enum.Operation operation, \n        uint256 nonce\n    )\n        public\n        view\n        returns (bytes32)\n    {\n        return keccak256(abi.encodePacked(byte(0x19), byte(0), this, to, value, data, operation, nonce));\n    }\n}\n",
  "sourcePath": "/media/000/Documents/Circles/safe-contracts/contracts/modules/StateChannelModule.sol",
  "compiler": {
    "name": "solc",
    "version": "0.5.7+commit.6da8b019.Emscripten.clang"
  },
  "schemaVersion": "2.0.3",
  "updatedAt": "2019-11-01T16:23:28.000Z"
}