{
  "address": "0xbD8E916d25cE2ABC31a1c4F21F5eBA0E8eEA38BE",
  "abi": [
    {
      "inputs": [
        {
          "internalType": "bytes",
          "name": "transactions",
          "type": "bytes"
        }
      ],
      "name": "multiSend",
      "outputs": [],
      "stateMutability": "payable",
      "type": "function"
    }
  ],
  "transactionHash": "0x7030870f202b11f63e5cf6a57cd1acf315fbbd37b7a5cba8e2cf532e00e0a362",
  "args": [],
  "solcInputHash": "9c021d1a9f24eabfc0126c57418450db",
  "bytecode": "0x608060405234801561001057600080fd5b5061019a806100206000396000f3fe60806040526004361061001e5760003560e01c80638d80ff0a14610023575b600080fd5b6100dc6004803603602081101561003957600080fd5b810190808035906020019064010000000081111561005657600080fd5b82018360208201111561006857600080fd5b8035906020019184600183028401116401000000008311171561008a57600080fd5b91908080601f016020809104026020016040519081016040528093929190818152602001838380828437600081840152601f19601f8201169050808301925050505050505091929192905050506100de565b005b805160205b8181101561015f578083015160f81c6001820184015160601c60158301850151603584018601516055850187016000856000811461012857600181146101385761013d565b6000808585888a5af1915061013d565b600080fd5b50600081141561014c57600080fd5b82605501870196505050505050506100e3565b50505056fea26469706673582212204082f6dc805403de239bcc8c1c4768e7b861f91eb5824897877813427076a7b964736f6c63430007060033",
  "devdoc": {
    "author": "Stefan George - <stefan@gnosis.io>Richard Meissner - <richard@gnosis.io>",
    "kind": "dev",
    "methods": {
      "multiSend(bytes)": {
        "details": "Sends multiple transactions and reverts all if one fails.",
        "params": {
          "transactions": "Encoded transactions. Each transaction is encoded as a packed bytes of                     operation has to be uint8(0) in this version (=> 1 byte),                     to as a address (=> 20 bytes),                     value as a uint256 (=> 32 bytes),                     data length as a uint256 (=> 32 bytes),                     data as bytes.                     see abi.encodePacked for more information on packed encoding"
        }
      }
    },
    "title": "Multi Send Call Only - Allows to batch multiple transactions into one, but only calls",
    "version": 1
  },
  "userdoc": {
    "kind": "user",
    "methods": {
      "multiSend(bytes)": {
        "notice": "The code is for most part the same as the normal MultiSend (to keep compatibility),          but reverts if a transaction tries to use a delegatecall.This method is payable as delegatecalls keep the msg.value from the previous call         If the calling method (e.g. execTransaction) received ETH this would revert otherwise"
      }
    },
    "notice": "The guard logic is not required here as this contract doesn't support nested delegate calls",
    "version": 1
  },
  "storageLayout": {
    "storage": [],
    "types": null
  }
}