{
  "address": "0xd9844f0C67C641fA5154207dE7b65773229bEc61",
  "abi": [
    {
      "inputs": [],
      "stateMutability": "nonpayable",
      "type": "constructor"
    },
    {
      "inputs": [
        {
          "internalType": "bytes",
          "name": "transactions",
          "type": "bytes"
        }
      ],
      "name": "multiSend",
      "outputs": [],
      "stateMutability": "payable",
      "type": "function"
    }
  ],
  "transactionHash": "0x2357fcc1a5cb746db4a5dd07769f68a2a5f0a367daaec53bbba0b07f08ce2da2",
  "args": [],
  "solcInputHash": "9c021d1a9f24eabfc0126c57418450db",
  "bytecode": "0x608060405234801561001057600080fd5b507f89232e6dba5a1949e493f5034fcd46db3c1ee01386363067973d7739bc50b63e60008190555061024b806100476000396000f3fe60806040526004361061001e5760003560e01c80638d80ff0a14610023575b600080fd5b6100dc6004803603602081101561003957600080fd5b810190808035906020019064010000000081111561005657600080fd5b82018360208201111561006857600080fd5b8035906020019184600183028401116401000000008311171561008a57600080fd5b91908080601f016020809104026020016040519081016040528093929190818152602001838380828437600081840152601f19601f8201169050808301925050505050505091929192905050506100de565b005b7f89232e6dba5a1949e493f5034fcd46db3c1ee01386363067973d7739bc50b63e6000541415610159576040517f08c379a00000000000000000000000000000000000000000000000000000000081526004018080602001828103825260308152602001806101e66030913960400191505060405180910390fd5b805160205b818110156101e0578083015160f81c6001820184015160601c6015830185015160358401860151605585018701600085600081146101a357600181146101b3576101be565b6000808585888a5af191506101be565b6000808585895af491505b5060008114156101cd57600080fd5b826055018701965050505050505061015e565b50505056fe4d756c746953656e642073686f756c64206f6e6c792062652063616c6c6564207669612064656c656761746563616c6ca26469706673582212200832757a77ab4ceae38943a1b1705d1feb8bc4638f00a9947322c96db8fc626564736f6c63430007060033",
  "devdoc": {
    "author": "Nick Dodson - <nick.dodson@consensys.net>Gonçalo Sá - <goncalo.sa@consensys.net>Stefan George - <stefan@gnosis.io>Richard Meissner - <richard@gnosis.io>",
    "kind": "dev",
    "methods": {
      "multiSend(bytes)": {
        "details": "Sends multiple transactions and reverts all if one fails.",
        "params": {
          "transactions": "Encoded transactions. Each transaction is encoded as a packed bytes of                     operation as a uint8 with 0 for a call or 1 for a delegatecall (=> 1 byte),                     to as a address (=> 20 bytes),                     value as a uint256 (=> 32 bytes),                     data length as a uint256 (=> 32 bytes),                     data as bytes.                     see abi.encodePacked for more information on packed encoding"
        }
      }
    },
    "title": "Multi Send - Allows to batch multiple transactions into one.",
    "version": 1
  },
  "userdoc": {
    "kind": "user",
    "methods": {
      "multiSend(bytes)": {
        "notice": "This method is payable as delegatecalls keep the msg.value from the previous call         If the calling method (e.g. execTransaction) received ETH this would revert otherwise"
      }
    },
    "version": 1
  },
  "storageLayout": {
    "storage": [
      {
        "astId": 3033,
        "contract": "contracts/libraries/MultiSend.sol:MultiSend",
        "label": "guard",
        "offset": 0,
        "slot": "0",
        "type": "t_bytes32"
      }
    ],
    "types": {
      "t_bytes32": {
        "encoding": "inplace",
        "label": "bytes32",
        "numberOfBytes": "32"
      }
    }
  }
}